001:H6687     TWBP00051820190818001201908190202Satya                                   Bodhanki                                18-641/3,CO-OPERATIVE COLONY  CHODAVARAM ,VISAKHAPATNAM RURAANDHRA PRADESH,INIDA          Krishna                       AP531036   IN+91 9440889456                                  190818050000H6687I20190614T0000000000000000000000000000000000000010027018177INR20725000000000000RB3     INT     RB3     000MC55215730248167091119                    00001
002:   1682201906169104    0001552157302481670911/19                   -00000737500000011
002:   6758201908189004    0001Deposit Transfer at C/I                 000000737500000021
003:00051820:18:0000000000000000000000000000000100002010005
001:H6687     TWBP00051820190818001201908190202Satya                                   Bodhanki                                18-641/3,CO-OPERATIVE COLONY  CHODAVARAM ,VISAKHAPATNAM RURAANDHRA PRADESH,INIDA          Krishna                       AP531036   IN+91 9440889456                                  190818050000H6687I20190614T0000000000000000000000000000000014703520027018177INR20725000000000000RB3     INT     RB3     000MC51037202059153980123                    00002
002:   6759201908189004    0001Deposit Transfer at C/I                 -00000737500000010
002:   6779201908189104    0001510372020591539801/23                   -00000118000000020
002:   8189201908189999    0001Accommodation                           -00000725000000031
002:   8190201908189999    0001Accommodation Charges                   000000725000000040
002:   8191201908181001    0001Slab 1 Room Accomodation                000000645000000051
002:   8192201908187302    0001CGST - 9 % On Accommodation             000000065250000060
002:   8193201908187303    0001SGST - 9 % On Accommodation             000000065250000070
002:   8194201908187304    0001CGST -14 %On Accommodation              000000000000000081
002:   8195201908187305    0001SGST - 14 % On Accommodation            000000000000000091
002:   8196201908182040    0001The Square Breakfast Package            000000080000000101
003:00051820:18:0000000000000000000000000147035200010010005
001:H6687     QEB 00012920190818001201908190100Akinari                                 Takagi                                  1-4-6 Imago                   kawasaki                                                                                             JP+81 8034750933                                  190818050000JapanI20190711T0000000000000000000000000000000014705610027355431INR20720000000000000MOB     BusinessMOB     000VA45343664187130060621                    00003
002:   7029201908184005    0001Internet Access                         000000000000000011
002:   7228201908181001    0001Accommodation Charge                    000000720000000020
002:   7229201908187302    0001CGST - 9 % On Accommodation             000000064800000030
002:   7230201908187303    0001SGST - 9 % On Accommodation             000000064800000040
002:   7231201908187304    0001CGST -14 %On Accommodation              000000000000000051
002:   7232201908187305    0001SGST - 14 % On Accommodation            000000000000000061
002:   7233201908182035    0001The Square Breakfast                    000000075000000070
002:   7234201908187308    0001CGST - 9 % Square                       000000006750000080
002:   7235201908187309    0001SGST - 9 % Square                       000000006750000090
002:   9687201908199100    0001453436641871300606/21                   -00000938100000100
003:00012923:59:0000000000000000000000000147056100010010005
001:H6687     QEB 00052720190817002201908190100Steven Mr                               Rigby                                                                                                                                                                      IN+447860778892                                   190817050000BuxtoI20190712T0912001260000000000000000000000000000010027371425INR20675000000000000RA1     B       RA1     000VA                                        00004
002:   6416201908184005    0001Internet Access                         000000000000000011
003:00052723:59:0000000000000000000000000000000100001010005
001:H6687     QEB 00052720190817002201908190100Steven Mr                               Rigby                                                                                                                                                                      IN+447860778892                                   190817050000BuxtoI20190712T0912001260000000000000000000000014705120027371425INR20675000000000000RA1     B       RA1     000MC55537488688048510721                    00005
002:   4711201908171001    0001Accommodation Charges                   000000800000000010
002:   4712201908177302    0001CGST - 9 % On Accommodation             000000000000000021
002:   4713201908177303    0001SGST - 9 % On Accommodation             000000000000000031
002:   4714201908177304    0001CGST -14 %On Accommodation              000000112000000040
002:   4715201908177305    0001SGST - 14 % On Accommodation            000000112000000050
002:   6725201908182400    0001The Square Dinner Food                  000000139900000060
002:   6726201908182406    0001The Square Dinner Liquor                000000038500000070
002:   6727201908187308    0001CGST - 9 % Square                       000000012591000080
002:   6728201908187309    0001SGST - 9 % Square                       000000012591000090
002:   8271201908181001    0001Accommodation Charges                   000000675000000100
002:   8272201908187302    0001CGST - 9 % On Accommodation             000000060750000110
002:   8273201908187303    0001SGST - 9 % On Accommodation             000000060750000120
002:   8274201908187304    0001CGST -14 %On Accommodation              000000000000000131
002:   8275201908187305    0001SGST - 14 % On Accommodation            000000000000000141
002:   9168201908199104    0001555374886880485107/21                   -00002024082000150
003:00052723:59:0000000000000000000000000147051200015010005
001:H6687     QEB 00052720190817002201908190100Steven Mr                               Rigby                                                                                                                                                                      IN+447860778892                                   190817050000BuxtoI20190712T0912001260000000000000000000000014704930027371425INR20675000000000000RA1     B       RA1     000VA40826510034389031119                    00006
002:   3394201908175218    0001Transport Charges                       000000050000000010
002:   3395201908177347    0001CGST - 6% Transportation                000000003000000020
002:   3396201908177348    0001SGST - 6 %  Transportation              000000003000000030
002:   6506201908182606    0001Bar Lunch Liquor                        000000038500000040
002:   9164201908199100    0001408265100343890311/19                   -00000094500000050
003:00052723:59:0000000000000000000000000147049300005010005
001:H6687     QEB 00052120190818001201908190201Sekhar                                  Pindiprolu                              40-14-4/3, No-1, ChandramoulipChermas Road, Benz Circle     Vijayawada, Venkateswarapuram Krishna                       AP520010   IN+919440923623                                   HNKSHHNP0000H6687I20190726T0000000000000000000000000000000000000010027576175INR20775000000000000RA3     55R     RA3     000VA41003904910058600820                    00007
002:   4960201907269100    0001410039049100586008/20                   -00000992000000011
002:   6072201908189004    0001Deposit Transfer at C/I                 000000992000000021
002:   6077201908184005    0001Internet Access                         000000000000000031
003:00052115:08:0000000000000000000000000000000100003010005
001:H6687     QEB 00052120190818001201908190201Sekhar                                  Pindiprolu                              40-14-4/3, No-1, ChandramoulipChermas Road, Benz Circle     Vijayawada, Venkateswarapuram Krishna                       AP520010   IN+919440923623                                   HNKSHHNP0000H6687I20190726T0000000000000000000000000000000014700820027576175INR20775000000000000RA3     55R     RA3     000VA                                        00008
002:   6073201908189004    0001Deposit Transfer at C/I                 -00000992000000010
002:   8245201908181001    0001Accommodation Charges                   000000775000000020
002:   8246201908187302    0001CGST - 9 % On Accommodation             000000000000000031
002:   8247201908187303    0001SGST - 9 % On Accommodation             000000000000000041
002:   8248201908187304    0001CGST -14 %On Accommodation              000000108500000050
002:   8249201908187305    0001SGST - 14 % On Accommodation            000000108500000060
003:00052115:08:0000000000000000000000000147008200006010005
001:H6687     QEB 00052120190818001201908190201Sekhar                                  Pindiprolu                              40-14-4/3, No-1, ChandramoulipChermas Road, Benz Circle     Vijayawada, Venkateswarapuram Krishna                       AP520010   IN+919440923623                                   HNKSHHNP0000H6687I20190726T0000000000000000000000000000000014700730027576175INR20775000000000000RA3     55R     RA3     000CA                                        00009
002:   6074201908189000    0001Cash                                    -00000300000000010
002:   6751201908182220    0001IRD Dinner Food                         000000067500000020
002:   6752201908187306    0001CGST - 9 %  IRD                         000000006075000030
002:   6753201908187307    0001SGST - 9 % IRD                          000000006075000040
002:   8902201908198000    0001Paid Out                                000000220350000050
003:00052115:08:0000000000000000000000000147007300005010005
001:H6687     QEB 00037020190818001201908190100Ramesh                                  Mitragotri                              UltraTech Cement Ltd                                                                      Bidar                         KR585292   IN9702032996                                      HNTSDKXD0000H6687I20190803C0000000000000000000000000000000014703210027809425INR20700000000000000C07     55R     C07     000VA43057000091611901121                    00010
002:   1650201908069001    0001Check                                   -00000892000000011
002:   6903201908189004    0001Deposit Transfer at C/I                 000000892000000021
002:   6921201908184005    0001Internet Access                         000000000000000031
002:   6959201908182240    0001IRD Midnight Food                       000000055000000040
002:   6960201908187306    0001CGST - 9 %  IRD                         000000004950000050
002:   6961201908187307    0001SGST - 9 % IRD                          000000004950000060
002:   8947201908199100    0001430570000916119011/21                   -00000064900000070
003:00037022:20:0000000000000000000000000147032100007010005
001:H6687     QEB 00037020190818001201908190100Ramesh                                  Mitragotri                              UltraTech Cement Ltd                                                                      Bidar                         KR585292   IN9702032996                                      HNTSDKXD0000H6687I20190803C0000000000000000000000000000000014705220027809425INR20700000000000000C07     55R     C07     000VA                                        00011
002:   7727201908189999    0001Accommodation                           -00000700000000011
002:   7728201908189999    0001Accommodation Charge                    000000700000000020
002:   7729201908181001    0001Slab 1 Room Accomodation                000000660000000031
002:   7730201908187302    0001CGST - 9 % On Accommodation             000000063000000040
002:   7731201908187303    0001SGST - 9 % On Accommodation             000000063000000050
002:   7732201908187304    0001CGST -14 %On Accommodation              000000000000000061
002:   7733201908187305    0001SGST - 14 % On Accommodation            000000000000000071
002:   7734201908182040    0001The Square Breakfast Package            000000040000000081
002:   9184201908189004    0001Deposit Transfer at C/I                 -00000826000000090
003:00037022:20:0000000000000000000000000147052200009010005
001:H6687     QEB 00037020190818001201908190100Ramesh                                  Mitragotri                              UltraTech Cement Ltd                                                                      Bidar                         KR585292   IN9702032996                                      HNTSDKXD0000H6687I20190803C0000000000000000000000000000000000071330027809425INR20700000000000000C07     55R     C07     000VAFRONT OFFICE ACCOUNT                    00012
002:   9185201908189004    0001Deposit Transfer at C/I                 -00000066000000010
002:   9187201908199003    0001FRONT OFFICE ACCOUNTCity Ledger         000000066000000020
003:00037022:20:0000000000000000000000000000713300002010005
001:H6687     QEB 00033320190818001201908190100jianfeng                                xu                                      115,shazhou west road                                                                     ZhangJiaGang                    215600   CN+86 139 0624 96                                 HNWSHLKH0000China320190805T0PC0290900000000000000000000000000000010027887425INR20700000000000000FLRB3   BusinessFLRB3   000VA46624532734941300723                    00013
002:   0150201908069100    0001466245327349413007/23                   -00000826000000011
002:   6940201908189004    0001Deposit Transfer at C/I                 000000826000000021
003:00033322:55:0000000000000000000000000000000100002010005
001:H6687     QEB 00033320190818001201908190100jianfeng                                xu                                      115,shazhou west road                                                                     ZhangJiaGang                    215600   CN+86 139 0624 96                                 HNWSHLKH0000China320190805T0PC0290900000000000000000000000014704020027887425INR20700000000000000FLRB3   BusinessFLRB3   000VA                                        00014
002:   6941201908189004    0001Deposit Transfer at C/I                 -00000826000000010
002:   7482201908189999    0001Accommodation                           -00000700000000021
002:   7483201908189999    0001Accommodation Charges                   000000700000000030
002:   7484201908181001    0001Slab 1 Room Accomodation                000000660000000041
002:   7485201908187302    0001CGST - 9 % On Accommodation             000000063000000050
002:   7486201908187303    0001SGST - 9 % On Accommodation             000000063000000060
002:   7487201908187304    0001CGST -14 %On Accommodation              000000000000000071
002:   7488201908187305    0001SGST - 14 % On Accommodation            000000000000000081
002:   7489201908182040    0001The Square Breakfast Package            000000040000000091
003:00033322:55:0000000000000000000000000147040200009010005
001:H6687     PM  00900620190812007201908190100swapna                                  idupulapati                                                                                                                                                                US+1 900 99634380                                         0000H6687220190807N0PC0290900000000000000000000000014709710027939425INR20000000000000000ZZZ     BKG     ZZZ     000VA42668413719409491023                    00015
002:   7650201908079100    0001426684137194094910/23                   -00001024000000011
002:   0400201908129004    0001Deposit Transfer at C/I                 000001024000000021
002:   0401201908129004    0001Deposit Transfer at C/I                 -00001024000000030
002:   6204201908121001    0001Slab 1 Room Accomodation                000000000000000041
002:   6205201908127302    0001CGST - 9 % On Accommodation             000000000000000051
002:   6206201908127303    0001SGST - 9 % On Accommodation             000000000000000061
002:   6207201908127304    0001CGST -14 %On Accommodation              000000000000000071
002:   6208201908127305    0001SGST - 14 % On Accommodation            000000000000000081
002:   2460201908131001    0001Slab 1 Room Accomodation                000000000000000091
002:   2461201908137302    0001CGST - 9 % On Accommodation             000000000000000101
002:   2462201908137303    0001SGST - 9 % On Accommodation             000000000000000111
002:   2463201908137304    0001CGST -14 %On Accommodation              000000000000000121
002:   2464201908137305    0001SGST - 14 % On Accommodation            000000000000000131
002:   4558201908141001    0001Slab 1 Room Accomodation                000000000000000141
002:   4559201908147302    0001CGST - 9 % On Accommodation             000000000000000151
002:   4560201908147303    0001SGST - 9 % On Accommodation             000000000000000161
002:   4561201908147304    0001CGST -14 %On Accommodation              000000000000000171
002:   4562201908147305    0001SGST - 14 % On Accommodation            000000000000000181
002:   8869201908151001    0001Slab 1 Room Accomodation                000000000000000191
002:   8870201908157302    0001CGST - 9 % On Accommodation             000000000000000201
002:   8871201908157303    0001SGST - 9 % On Accommodation             000000000000000211
002:   8872201908157304    0001CGST -14 %On Accommodation              000000000000000221
002:   8873201908157305    0001SGST - 14 % On Accommodation            000000000000000231
002:   9653201908161001    0001Slab 1 Room Accomodation                000000000000000241
002:   9654201908167302    0001CGST - 9 % On Accommodation             000000000000000251
002:   9655201908167303    0001SGST - 9 % On Accommodation             000000000000000261
002:   9656201908167304    0001CGST -14 %On Accommodation              000000000000000271
002:   9657201908167305    0001SGST - 14 % On Accommodation            000000000000000281
002:   5071201908171001    0001Slab 1 Room Accomodation                000000000000000291
002:   5072201908177302    0001CGST - 9 % On Accommodation             000000000000000301
002:   5073201908177303    0001SGST - 9 % On Accommodation             000000000000000311
002:   5074201908177304    0001CGST -14 %On Accommodation              000000000000000321
002:   5075201908177305    0001SGST - 14 % On Accommodation            000000000000000331
002:   8588201908181001    0001Slab 1 Room Accomodation                000000000000000341
002:   8589201908187302    0001CGST - 9 % On Accommodation             000000000000000351
002:   8590201908187303    0001SGST - 9 % On Accommodation             000000000000000361
002:   8591201908187304    0001CGST -14 %On Accommodation              000000000000000371
002:   8592201908187305    0001SGST - 14 % On Accommodation            000000000000000381
002:   1157201908191004    0001Slab 1 No Show Accomodation             000000749900000390
002:   1158201908197349    0001CGST - 9 % Rooms                        000000067491000400
002:   1159201908197350    0001SGST - 9 %  Rooms                       000000067491000410
002:   1160201908191004    0001Slab 1 No Show Accomodation             000000117897000420
002:   1161201908197349    0001CGST - 9 % Rooms                        000000010611000430
002:   1162201908197350    0001SGST - 9 %  Rooms                       000000010611000440
002:   1163201908191018    0001Round Off                               -00000000001000450
003:00900622:27:0000000000000000000000000147097100045010005
001:H6687     TWB 00041120190814005201908190300Haseeb                                  Samdani                                 10315                         Georgetown Pike                                             Great Falls                   VA22066    US8045393915                                      HNZSFFBW0000H6687220190807T0PC0290900000000000000000000000014711020027956425INR20750000000000000FLRA1   BKG     FLRA1   000VA41353163100007400622                    00016
002:   1900201908143000    0001Minibar Food                            000000012000000010
002:   1901201908147314    0001CGST - 6 % MB Namkeens                  000000000720000020
002:   1902201908147315    0001SGST - 6 % MB Namkeens                  000000000720000030
002:   1903201908143008    0001MiniBar Cholotes                        000000024000000040
002:   1904201908147316    0001CGST - 9 % MB Chocolate                 000000002160000050
002:   1905201908147317    0001SGST - 9 % MB Chocolate                 000000002160000060
002:   3650201908141031    0001Slab 1 Extra Bed Charges                000000200000000070
002:   3651201908147302    0001CGST - 9 % On Accommodation             000000018000000080
002:   3652201908147303    0001SGST - 9 % On Accommodation             000000018000000090
002:   3653201908147304    0001CGST -14 %On Accommodation              000000000000000101
002:   3654201908147305    0001SGST - 14 % On Accommodation            000000000000000111
002:   9650201908142200    0001IRD Lunch Food                          000000240000000120
002:   9651201908147306    0001CGST - 9 %  IRD                         000000021600000130
002:   9652201908147307    0001SGST - 9 % IRD                          000000021600000140
002:   9900201908142200    0001IRD Lunch Food                          000000242500000150
002:   9901201908142201    0001IRD Lunch Soft Beverage                 000000018000000160
002:   9902201908147306    0001CGST - 9 %  IRD                         000000023445000170
002:   9903201908147307    0001SGST - 9 % IRD                          000000023445000180
002:   0150201908142200    0001IRD Lunch Food                          000000077500000190
002:   0151201908147306    0001CGST - 9 %  IRD                         000000006975000200
002:   0152201908147307    0001SGST - 9 % IRD                          000000006975000210
002:   3150201908142201    0001IRD Lunch Soft Beverage                 000000060000000220
002:   3151201908147306    0001CGST - 9 %  IRD                         000000005400000230
002:   3152201908147307    0001SGST - 9 % IRD                          000000005400000240
002:   3761201908141001    0001Accommodation Charges                   000000750000000250
002:   3762201908147302    0001CGST - 9 % On Accommodation             000000000000000261
002:   3763201908147303    0001SGST - 9 % On Accommodation             000000000000000271
002:   3764201908147304    0001CGST -14 %On Accommodation              000000105000000280
002:   3765201908147305    0001SGST - 14 % On Accommodation            000000105000000290
002:   9400201908152000    0001The Square Breakfast Food               000000340000000300
002:   9401201908157308    0001CGST - 9 % Square                       000000030600000310
002:   9402201908157309    0001SGST - 9 % Square                       000000030600000320
002:   0150201908152300    0001The Square Lunch Food                   000000259800000330
002:   0151201908157308    0001CGST - 9 % Square                       000000023382000340
002:   0152201908157309    0001SGST - 9 % Square                       000000023382000350
002:   5150201908152200    0001IRD Lunch Food                          000000150000000360
002:   5151201908157306    0001CGST - 9 %  IRD                         000000013500000370
002:   5152201908157307    0001SGST - 9 % IRD                          000000013500000380
002:   6650201908152200    0001IRD Lunch Food                          000000080000000390
002:   6651201908157306    0001CGST - 9 %  IRD                         000000007200000400
002:   6652201908157307    0001SGST - 9 % IRD                          000000007200000410
002:   8650201908152400    0001The Square Dinner Food                  000000839400000420
002:   8651201908152401    0001The Square Dinner Soft Beverage         000000090000000431
002:   8651201908152401    0001The Square Dinner Soft Beverage         000000090000000440
002:   8652201908157308    0001CGST - 9 % Square                       000000083646000450
002:   8653201908157309    0001SGST - 9 % Square                       000000083646000460
002:   3653201908152701    0001Bar Dinner Soft Beverage                000000030000000470
002:   3654201908157310    0001CGST - 9 % Bar                          000000002700000480
002:   3655201908157311    0001SGST - 9 % Bar                          000000002700000490
002:   8142201908151001    0001Accommodation Charges                   000000675000000500
002:   8143201908157302    0001CGST - 9 % On Accommodation             000000060750000510
002:   8144201908157303    0001SGST - 9 % On Accommodation             000000060750000520
002:   8145201908157304    0001CGST -14 %On Accommodation              000000000000000531
002:   8146201908157305    0001SGST - 14 % On Accommodation            000000000000000541
002:   9400201908162000    0001The Square Breakfast Food               000000255000000550
002:   9401201908167308    0001CGST - 9 % Square                       000000022950000560
002:   9402201908167309    0001SGST - 9 % Square                       000000022950000570
002:   9900201908162200    0001IRD Lunch Food                          000000080000000580
002:   9901201908167306    0001CGST - 9 %  IRD                         000000007200000590
002:   9902201908167307    0001SGST - 9 % IRD                          000000007200000600
002:   6400201908162200    0001IRD Lunch Food                          000000270000000610
002:   6401201908162201    0001IRD Lunch Soft Beverage                 000000060000000620
002:   6402201908167306    0001CGST - 9 %  IRD                         000000029700000630
002:   6403201908167307    0001SGST - 9 % IRD                          000000029700000640
002:   7651201908163008    0001MiniBar Cholotes                        000000012000000650
002:   7652201908167316    0001CGST - 9 % MB Chocolate                 000000001080000660
002:   7653201908167317    0001SGST - 9 % MB Chocolate                 000000001080000670
002:   7654201908163000    0001Minibar Food                            000000012000000680
002:   7655201908167314    0001CGST - 6 % MB Namkeens                  000000000720000690
002:   7656201908167315    0001SGST - 6 % MB Namkeens                  000000000720000700
002:   8293201908162400    0001The Square Dinner Food                  000000559600000710
002:   8294201908162401    0001The Square Dinner Soft Beverage         000000060000000721
002:   8294201908162401    0001The Square Dinner Soft Beverage         000000060000000730
002:   8295201908167308    0001CGST - 9 % Square                       000000055764000740
002:   8296201908167309    0001SGST - 9 % Square                       000000055764000750
002:   9121201908161001    0001Accommodation Charges                   000000800000000760
002:   9122201908167302    0001CGST - 9 % On Accommodation             000000000000000771
002:   9123201908167303    0001SGST - 9 % On Accommodation             000000000000000781
002:   9124201908167304    0001CGST -14 %On Accommodation              000000112000000790
002:   9125201908167305    0001SGST - 14 % On Accommodation            000000112000000800
002:   1179201908172300    0001The Square Lunch Food                   000000425000000810
002:   1180201908177308    0001CGST - 9 % Square                       000000038250000820
002:   1181201908177309    0001SGST - 9 % Square                       000000038250000830
002:   1692201908173008    0001MiniBar Cholotes                        000000012000000840
002:   1693201908177316    0001CGST - 9 % MB Chocolate                 000000001080000850
002:   1694201908177317    0001SGST - 9 % MB Chocolate                 000000001080000860
002:   1695201908173000    0001Minibar Food                            000000012000000870
002:   1696201908177314    0001CGST - 6 % MB Namkeens                  000000000720000880
002:   1697201908177315    0001SGST - 6 % MB Namkeens                  000000000720000890
002:   4368201908171001    0001Accommodation Charges                   000000725000000900
002:   4369201908177302    0001CGST - 9 % On Accommodation             000000065250000910
002:   4370201908177303    0001SGST - 9 % On Accommodation             000000065250000920
002:   4371201908177304    0001CGST -14 %On Accommodation              000000000000000931
002:   4372201908177305    0001SGST - 14 % On Accommodation            000000000000000941
002:   5692201908182000    0001The Square Breakfast Food               000000170000000950
002:   5693201908182001    0001The Square Breakfast Soft Beverage      000000017500000960
002:   5694201908187308    0001CGST - 9 % Square                       000000016875000970
002:   5695201908187309    0001SGST - 9 % Square                       000000016875000980
002:   5991201908182300    0001The Square Lunch Food                   000001154300000990
002:   5992201908187308    0001CGST - 9 % Square                       000000103887001000
002:   5993201908187309    0001SGST - 9 % Square                       000000103887001010
002:   6029201908183008    0001MiniBar Cholotes                        000000012000001020
002:   6030201908187316    0001CGST - 9 % MB Chocolate                 000000001080001030
002:   6031201908187317    0001SGST - 9 % MB Chocolate                 000000001080001040
002:   6032201908183000    0001Minibar Food                            000000010000001050
002:   6033201908187314    0001CGST - 6 % MB Namkeens                  000000000600001060
002:   6034201908187315    0001SGST - 6 % MB Namkeens                  000000000600001070
002:   6035201908183000    0001Minibar Food                            000000012000001080
002:   6036201908187314    0001CGST - 6 % MB Namkeens                  000000000720001090
002:   6037201908187315    0001SGST - 6 % MB Namkeens                  000000000720001100
002:   6087201908182601    0001Bar Lunch Soft Beverage                 000000030000001110
002:   6088201908187310    0001CGST - 9 % Bar                          000000002700001120
002:   6089201908187311    0001SGST - 9 % Bar                          000000002700001130
002:   6401201908182200    0001IRD Lunch Food                          000000045000001140
002:   6402201908187306    0001CGST - 9 %  IRD                         000000004050001150
002:   6403201908187307    0001SGST - 9 % IRD                          000000004050001160
002:   7794201908181001    0001Accommodation Charges                   000000725000001170
002:   7795201908187302    0001CGST - 9 % On Accommodation             000000065250001180
002:   7796201908187303    0001SGST - 9 % On Accommodation             000000065250001190
002:   7797201908187304    0001CGST -14 %On Accommodation              000000000000001201
002:   7798201908187305    0001SGST - 14 % On Accommodation            000000000000001211
002:   9957201908193000    0001Minibar Food                            000000010000001220
002:   9958201908197314    0001CGST - 6 % MB Namkeens                  000000000600001230
002:   9959201908197315    0001SGST - 6 % MB Namkeens                  000000000600001240
002:   9960201908193000    0001Minibar Food                            000000010000001250
002:   9961201908197314    0001CGST - 6 % MB Namkeens                  000000000600001260
002:   9962201908197315    0001SGST - 6 % MB Namkeens                  000000000600001270
002:   9963201908193000    0001Minibar Food                            000000012000001280
002:   9964201908197314    0001CGST - 6 % MB Namkeens                  000000000720001290
002:   9965201908197315    0001SGST - 6 % MB Namkeens                  000000000720001300
002:   9966201908192300    0001The Square Lunch Food                   000000679500001310
002:   9967201908192301    0001The Square Lunch Soft Beverage          000000065500001320
002:   9968201908197308    0001CGST - 9 % Square                       000000067050001330
002:   9969201908197309    0001SGST - 9 % Square                       000000067050001340
002:   0411201908192200    0001IRD Lunch Food                          000000080000001350
002:   0412201908197306    0001CGST - 9 %  IRD                         000000007200001360
002:   0413201908197307    0001SGST - 9 % IRD                          000000007200001370
002:   1411201908192220    0001IRD Dinner Food                         000000527500001380
002:   1412201908197306    0001CGST - 9 %  IRD                         000000047475001390
002:   1413201908197307    0001SGST - 9 % IRD                          000000047475001400
002:   1475201908192220    0001IRD Dinner Food                         000000015000001410
002:   1476201908197306    0001CGST - 9 %  IRD                         000000001350001420
002:   1477201908197307    0001SGST - 9 % IRD                          000000001350001430
002:   1613201908191001    0001Accommodation Charges                   000000750000001440
002:   1614201908197302    0001CGST - 9 % On Accommodation             000000000000001451
002:   1615201908197303    0001SGST - 9 % On Accommodation             000000000000001461
002:   1616201908197304    0001CGST -14 %On Accommodation              000000105000001470
002:   1617201908197305    0001SGST - 14 % On Accommodation            000000105000001480
002:   1624201908149100    0001413531631000074006/22                   -00007029930001490
002:   1625201908199000    0001Cash                                    -00003000000001500
002:   1626201908199100    0001413531631000074006/22                   -00003996068001510
002:   1634201908193008    0001MiniBar Cholotes                        000000012000001520
002:   1635201908197316    0001CGST - 9 % MB Chocolate                 000000001080001530
002:   1636201908197317    0001SGST - 9 % MB Chocolate                 000000001080001540
002:   1637201908193001    0001Minibar Soft Beverage                   000000010000001550
002:   1638201908197318    0001CGST - 14 % MB, S Beve                  000000001400001560
002:   1639201908197319    0001SGST - 14 % MB, Soft Bev                000000001400001570
002:   1640201908197320    0001CESS -12% Minibar                       000000001200001580
002:   1641201908199000    0001Cash                                    -00000028160001590
003:00041108:57:0000000000000000000000000147110200159010005
001:H6687     TWB 00041520190814005201908190200Shaik                                   Samdani                                 10315                         Georgetown Pike                                             Great Falls                   VA22066    US8045393915                                      HNZSFFBW0000H6687220190807T0PC0290900000000000000000000000014710920027956426INR20750000000000000FLRA1   BKG     FLRA1   000VA41353163100007400622                    00017
002:   3900201908141031    0001Slab 1 Extra Bed Charges                000000100000000010
002:   3901201908147302    0001CGST - 9 % On Accommodation             000000009000000020
002:   3902201908147303    0001SGST - 9 % On Accommodation             000000009000000030
002:   3903201908147304    0001CGST -14 %On Accommodation              000000000000000041
002:   3904201908147305    0001SGST - 14 % On Accommodation            000000000000000051
002:   3771201908141001    0001Accommodation Charges                   000000750000000060
002:   3772201908147302    0001CGST - 9 % On Accommodation             000000000000000071
002:   3773201908147303    0001SGST - 9 % On Accommodation             000000000000000081
002:   3774201908147304    0001CGST -14 %On Accommodation              000000105000000090
002:   3775201908147305    0001SGST - 14 % On Accommodation            000000105000000100
002:   8157201908151001    0001Accommodation Charges                   000000675000000110
002:   8158201908157302    0001CGST - 9 % On Accommodation             000000060750000120
002:   8159201908157303    0001SGST - 9 % On Accommodation             000000060750000130
002:   8160201908157304    0001CGST -14 %On Accommodation              000000000000000141
002:   8161201908157305    0001SGST - 14 % On Accommodation            000000000000000151
002:   9131201908161001    0001Accommodation Charges                   000000800000000160
002:   9132201908167302    0001CGST - 9 % On Accommodation             000000000000000171
002:   9133201908167303    0001SGST - 9 % On Accommodation             000000000000000181
002:   9134201908167304    0001CGST -14 %On Accommodation              000000112000000190
002:   9135201908167305    0001SGST - 14 % On Accommodation            000000112000000200
002:   4383201908171001    0001Accommodation Charges                   000000725000000210
002:   4384201908177302    0001CGST - 9 % On Accommodation             000000065250000220
002:   4385201908177303    0001SGST - 9 % On Accommodation             000000065250000230
002:   4386201908177304    0001CGST -14 %On Accommodation              000000000000000241
002:   4387201908177305    0001SGST - 14 % On Accommodation            000000000000000251
002:   5917201908182200    0001IRD Lunch Food                          000000075000000260
002:   5918201908187306    0001CGST - 9 %  IRD                         000000006750000270
002:   5919201908187307    0001SGST - 9 % IRD                          000000006750000280
002:   6040201908183008    0001MiniBar Cholotes                        000000012000000290
002:   6041201908187316    0001CGST - 9 % MB Chocolate                 000000001080000300
002:   6042201908187317    0001SGST - 9 % MB Chocolate                 000000001080000310
002:   6043201908183001    0001Minibar Soft Beverage                   000000010000000320
002:   6044201908187318    0001CGST - 14 % MB, S Beve                  000000001400000330
002:   6045201908187319    0001SGST - 14 % MB, Soft Bev                000000001400000340
002:   6046201908187320    0001CESS -12% Minibar                       000000001200000350
002:   6047201908183000    0001Minibar Food                            000000010000000360
002:   6048201908187314    0001CGST - 6 % MB Namkeens                  000000000600000370
002:   6049201908187315    0001SGST - 6 % MB Namkeens                  000000000600000380
002:   6413201908182200    0001IRD Lunch Food                          000000080000000390
002:   6414201908187306    0001CGST - 9 %  IRD                         000000007200000400
002:   6415201908187307    0001SGST - 9 % IRD                          000000007200000410
002:   7804201908181001    0001Accommodation Charges                   000000725000000420
002:   7805201908187302    0001CGST - 9 % On Accommodation             000000065250000430
002:   7806201908187303    0001SGST - 9 % On Accommodation             000000065250000440
002:   7807201908187304    0001CGST -14 %On Accommodation              000000000000000451
002:   7808201908187305    0001SGST - 14 % On Accommodation            000000000000000461
002:   9688201908192200    0001IRD Lunch Food                          000000152500000470
002:   9689201908197306    0001CGST - 9 %  IRD                         000000013725000480
002:   9690201908197307    0001SGST - 9 % IRD                          000000013725000490
002:   9951201908193000    0001Minibar Food                            000000010000000500
002:   9952201908197314    0001CGST - 6 % MB Namkeens                  000000000600000510
002:   9953201908197315    0001SGST - 6 % MB Namkeens                  000000000600000520
002:   9954201908193008    0001MiniBar Cholotes                        000000012000000530
002:   9955201908197316    0001CGST - 9 % MB Chocolate                 000000001080000540
002:   9956201908197317    0001SGST - 9 % MB Chocolate                 000000001080000550
002:   1618201908191001    0001Accommodation Charges                   000000750000000560
002:   1619201908197302    0001CGST - 9 % On Accommodation             000000000000000571
002:   1620201908197303    0001SGST - 9 % On Accommodation             000000000000000581
002:   1621201908197304    0001CGST -14 %On Accommodation              000000105000000590
002:   1622201908197305    0001SGST - 14 % On Accommodation            000000105000000600
002:   1623201908149100    0001413531631000074006/22                   -00005997070000610
002:   1627201908193008    0001MiniBar Cholotes                        000000012000000620
002:   1628201908197316    0001CGST - 9 % MB Chocolate                 000000001080000630
002:   1629201908197317    0001SGST - 9 % MB Chocolate                 000000001080000640
002:   1630201908193001    0001Minibar Soft Beverage                   000000010000000650
002:   1631201908197318    0001CGST - 14 % MB, S Beve                  000000001400000660
002:   1632201908197319    0001SGST - 14 % MB, Soft Bev                000000001400000670
002:   1633201908197320    0001CESS -12% Minibar                       000000001200000680
002:   1642201908199000    0001Cash                                    -00000028160000690
003:00041508:56:0000000000000000000000000147109200069010005
001:H6687     PM  00902020190811008201908190000Rama krishna                            Vallabhaneni                                                                                                                                                    TX         US+1 2149973333                                           0000H6687I20190809N0000000000000000000000000000000014709610028056425INR20000000000000000ZZZ     AFT     ZZZ     000AX3712936349010050521                     00018
002:   8403201908099102    000137129363490100505/21                    -00001152000000011
002:   4650201908119004    0001Deposit Transfer at C/I                 000001152000000021
002:   4651201908119004    0001Deposit Transfer at C/I                 -00001152000000030
002:   9116201908111001    0001Slab 1 Room Accomodation                000000000000000041
002:   9117201908117302    0001CGST - 9 % On Accommodation             000000000000000051
002:   9118201908117303    0001SGST - 9 % On Accommodation             000000000000000061
002:   9119201908117304    0001CGST -14 %On Accommodation              000000000000000071
002:   9120201908117305    0001SGST - 14 % On Accommodation            000000000000000081
002:   6219201908121001    0001Slab 1 Room Accomodation                000000000000000091
002:   6220201908127302    0001CGST - 9 % On Accommodation             000000000000000101
002:   6221201908127303    0001SGST - 9 % On Accommodation             000000000000000111
002:   6222201908127304    0001CGST -14 %On Accommodation              000000000000000121
002:   6223201908127305    0001SGST - 14 % On Accommodation            000000000000000131
002:   2475201908131001    0001Slab 1 Room Accomodation                000000000000000141
002:   2476201908137302    0001CGST - 9 % On Accommodation             000000000000000151
002:   2477201908137303    0001SGST - 9 % On Accommodation             000000000000000161
002:   2478201908137304    0001CGST -14 %On Accommodation              000000000000000171
002:   2479201908137305    0001SGST - 14 % On Accommodation            000000000000000181
002:   4573201908141001    0001Slab 1 Room Accomodation                000000000000000191
002:   4574201908147302    0001CGST - 9 % On Accommodation             000000000000000201
002:   4575201908147303    0001SGST - 9 % On Accommodation             000000000000000211
002:   4576201908147304    0001CGST -14 %On Accommodation              000000000000000221
002:   4577201908147305    0001SGST - 14 % On Accommodation            000000000000000231
002:   8889201908151001    0001Slab 1 Room Accomodation                000000000000000241
002:   8890201908157302    0001CGST - 9 % On Accommodation             000000000000000251
002:   8891201908157303    0001SGST - 9 % On Accommodation             000000000000000261
002:   8892201908157304    0001CGST -14 %On Accommodation              000000000000000271
002:   8893201908157305    0001SGST - 14 % On Accommodation            000000000000000281
002:   9673201908161001    0001Slab 1 Room Accomodation                000000000000000291
002:   9674201908167302    0001CGST - 9 % On Accommodation             000000000000000301
002:   9675201908167303    0001SGST - 9 % On Accommodation             000000000000000311
002:   9676201908167304    0001CGST -14 %On Accommodation              000000000000000321
002:   9677201908167305    0001SGST - 14 % On Accommodation            000000000000000331
002:   5096201908171001    0001Slab 1 Room Accomodation                000000000000000341
002:   5097201908177302    0001CGST - 9 % On Accommodation             000000000000000351
002:   5098201908177303    0001SGST - 9 % On Accommodation             000000000000000361
002:   5099201908177304    0001CGST -14 %On Accommodation              000000000000000371
002:   5100201908177305    0001SGST - 14 % On Accommodation            000000000000000381
002:   8613201908181001    0001Slab 1 Room Accomodation                000000000000000391
002:   8614201908187302    0001CGST - 9 % On Accommodation             000000000000000401
002:   8615201908187303    0001SGST - 9 % On Accommodation             000000000000000411
002:   8616201908187304    0001CGST -14 %On Accommodation              000000000000000421
002:   8617201908187305    0001SGST - 14 % On Accommodation            000000000000000431
002:   1150201908191004    0001Slab 1 No Show Accomodation             000000749900000440
002:   1151201908197349    0001CGST - 9 % Rooms                        000000067491000450
002:   1152201908197350    0001SGST - 9 %  Rooms                       000000067491000460
002:   1153201908191004    0001Slab 1 No Show Accomodation             000000226371000470
002:   1154201908197349    0001CGST - 9 % Rooms                        000000020373000480
002:   1155201908197350    0001SGST - 9 %  Rooms                       000000020373000490
002:   1156201908191018    0001Round Off                               000000000001000500
003:00902022:43:0000000000000000000000000147096100050010005
001:H6687     TWBE00065820190815004201908190200Ali                                     Alkubaisi                               P O Box 23171                                                                             Doha                                     QA+97 466611137                                   190815050000QatarI20190812T0000000000000000000000000000000000000010028173675INR21020000000000000AP1     e       AP1     000VA46415915221156530922                    00019
002:   3400201908129100    0001464159152211565309/22                   -00007244800000011
002:   6400201908159004    0001Deposit Transfer at C/I                 000007244800000021
003:00065823:59:0000000000000000000000000000000100002010005
001:H6687     TWBE00065820190815004201908190200Ali                                     Alkubaisi                               P O Box 23171                                                                             Doha                                     QA+97 466611137                                   190815050000QatarI20190812T0000000000000000000000000000000014710620028173675INR21020000000000000AP1     e       AP1     000VA46415915221156530922                    00020
002:   9150201908163001    0001Minibar Soft Beverage                   000000010000000010
002:   9151201908167318    0001CGST - 14 % MB, S Beve                  000000001400000020
002:   9152201908167319    0001SGST - 14 % MB, Soft Bev                000000001400000030
002:   9153201908167320    0001CESS -12% Minibar                       000000001200000040
002:   9154201908163001    0001Minibar Soft Beverage                   000000010000000050
002:   9155201908167318    0001CGST - 14 % MB, S Beve                  000000001400000060
002:   9156201908167319    0001SGST - 14 % MB, Soft Bev                000000001400000070
002:   9157201908167320    0001CESS -12% Minibar                       000000001200000080
002:   9158201908163000    0001Minibar Food                            000000012000000090
002:   9159201908167314    0001CGST - 6 % MB Namkeens                  000000000720000100
002:   9160201908167315    0001SGST - 6 % MB Namkeens                  000000000720000110
002:   9161201908163000    0001Minibar Food                            000000020000000120
002:   9162201908167314    0001CGST - 6 % MB Namkeens                  000000001200000130
002:   9163201908167315    0001SGST - 6 % MB Namkeens                  000000001200000140
002:   9164201908163008    0001MiniBar Cholotes                        000000012000000150
002:   9165201908167316    0001CGST - 9 % MB Chocolate                 000000001080000160
002:   9166201908167317    0001SGST - 9 % MB Chocolate                 000000001080000170
002:   8183201908165218    0001Transport Charges                       000000350000000180
002:   8184201908167347    0001CGST - 6% Transportation                000000021000000190
002:   8185201908167348    0001SGST - 6 %  Transportation              000000021000000200
002:   3173201908175218    0001Transport Charges                       000000420000000210
002:   3174201908177347    0001CGST - 6% Transportation                000000025200000220
002:   3175201908177348    0001SGST - 6 %  Transportation              000000025200000230
002:   7002201908185218    0001Transport Charges                       000000752200000240
002:   7003201908187347    0001CGST - 6% Transportation                000000045132000250
002:   7004201908187348    0001SGST - 6 %  Transportation              000000045132000260
002:   7005201908182240    0001IRD Midnight Food                       000000095000000270
002:   7006201908187306    0001CGST - 9 %  IRD                         000000008550000280
002:   7007201908187307    0001SGST - 9 % IRD                          000000008550000290
002:   1487201908159004    0001Deposit Transfer at C/I                 -00001049600000300
002:   1496201908195218    0001Transport Charges                       000000583800000310
002:   1497201908197347    0001CGST - 6% Transportation                000000035028000320
002:   1498201908197348    0001SGST - 6 %  Transportation              000000035028000330
002:   1535201908199100    0001464159152211565309/22                   -00001499220000340
003:00065823:59:0000000000000000000000000147106200034010005
001:H6687     TWBE00065820190815004201908190200Ali                                     Alkubaisi                               P O Box 23171                                                                             Doha                                     QA+97 466611137                                   190815050000QatarI20190812T0000000000000000000000000000000014710540028173675INR21020000000000000AP1     e       AP1     000VA                                        00021
002:   8830201908159999    0001Accommodation                           -00000880000000011
002:   8831201908159999    0001Accommodation Charges                   000000880000000020
002:   8832201908151002    0001Slab 2 Room Accomodation                000000840000000031
002:   8833201908157304    0001CGST -14 %On Accommodation              000000123200000040
002:   8834201908157305    0001SGST - 14 % On Accommodation            000000123200000050
002:   8835201908157303    0001SGST - 9 % On Accommodation             000000000000000061
002:   8836201908157302    0001CGST - 9 % On Accommodation             000000000000000071
002:   8837201908152040    0001The Square Breakfast Package            000000040000000081
002:   9614201908169999    0001Accommodation                           -00001020000000091
002:   9615201908169999    0001Accommodation Charges                   000001020000000100
002:   9616201908161002    0001Slab 2 Room Accomodation                000000940000000111
002:   9617201908167304    0001CGST -14 %On Accommodation              000000142800000120
002:   9618201908167305    0001SGST - 14 % On Accommodation            000000142800000130
002:   9619201908167303    0001SGST - 9 % On Accommodation             000000000000000141
002:   9620201908167302    0001CGST - 9 % On Accommodation             000000000000000151
002:   9621201908162040    0001The Square Breakfast Package            000000080000000161
002:   5027201908179999    0001Accommodation                           -00000960000000171
002:   5028201908179999    0001Accommodation Charges                   000000960000000180
002:   5029201908171002    0001Slab 2 Room Accomodation                000000880000000191
002:   5030201908177304    0001CGST -14 %On Accommodation              000000134400000200
002:   5031201908177305    0001SGST - 14 % On Accommodation            000000134400000210
002:   5032201908177303    0001SGST - 9 % On Accommodation             000000000000000221
002:   5033201908177302    0001CGST - 9 % On Accommodation             000000000000000231
002:   5034201908172040    0001The Square Breakfast Package            000000080000000241
002:   8544201908189999    0001Accommodation                           -00000960000000251
002:   8545201908189999    0001Accommodation Charges                   000000960000000260
002:   8546201908181002    0001Slab 2 Room Accomodation                000000880000000271
002:   8547201908187304    0001CGST -14 %On Accommodation              000000134400000280
002:   8548201908187305    0001SGST - 14 % On Accommodation            000000134400000290
002:   8549201908187303    0001SGST - 9 % On Accommodation             000000000000000301
002:   8550201908187302    0001CGST - 9 % On Accommodation             000000000000000311
002:   8551201908182040    0001The Square Breakfast Package            000000080000000321
002:   9678201908199999    0001Accommodation                           -00001020000000331
002:   9679201908199999    0001Accommodation Charges                   000001020000000340
002:   9680201908191002    0001Slab 2 Room Accomodation                000000940000000351
002:   9681201908197304    0001CGST -14 %On Accommodation              000000142800000360
002:   9682201908197305    0001SGST - 14 % On Accommodation            000000142800000370
002:   9683201908197303    0001SGST - 9 % On Accommodation             000000000000000381
002:   9684201908197302    0001CGST - 9 % On Accommodation             000000000000000391
002:   9685201908192040    0001The Square Breakfast Package            000000080000000401
002:   1486201908159004    0001Deposit Transfer at C/I                 -00006195200000410
003:00065823:59:0000000000000000000000000147105400041010005
001:H6687     QEB 00054920190818001201908190100Robert                                  Patrick                                 818                           Piney Point                                                 Houston                       TX77024    US+1 8323922968                                   190818050000USA  I20190813C0143639040000000000000000000000000000010028227675INR20500000SC4270230C11     B-1     C11     000AX                                        00022
002:   6836201908184005    0001Internet Access                         000000000000000011
003:00054921:29:0000000000000000000000000000000100001010005
001:H6687     QEB 00054920190818001201908190100Robert                                  Patrick                                 818                           Piney Point                                                 Houston                       TX77024    US+1 8323922968                                   190818050000USA  I20190813C0143639040000000000000000000000014701520028227675INR20500000SC4270230C11     B-1     C11     000AX3793071736510031222                     00023
002:   8337201908189999    0001Accommodation                           -00000500000000011
002:   8338201908189999    0001Accommodation Charge                    000000500000000020
002:   8339201908181001    0001Slab 1 Room Accomodation                000000460000000031
002:   8340201908187302    0001CGST - 9 % On Accommodation             000000045000000040
002:   8341201908187303    0001SGST - 9 % On Accommodation             000000045000000050
002:   8342201908187304    0001CGST -14 %On Accommodation              000000000000000061
002:   8343201908187305    0001SGST - 14 % On Accommodation            000000000000000071
002:   8344201908182040    0001The Square Breakfast Package            000000040000000081
002:   8915201908193008    0001MiniBar Cholotes                        000000012000000090
002:   8916201908197316    0001CGST - 9 % MB Chocolate                 000000001080000100
002:   8917201908197317    0001SGST - 9 % MB Chocolate                 000000001080000110
002:   8921201908199102    000137930717365100312/22                    -00000604160000120
003:00054921:29:0000000000000000000000000147015200012010005
001:H6687     QEBP00012020190818001201908190100Raman Deep Singh                        Judge                                   Jemma 084, Gr Floor Emerald HiSector 65, South City-II                                    Gurgaon                       HR122018   IN9999998522                                      190818050000H6687I20190813T0000000000000000000000000000000000000010028240675INR20750000000000000RA1     INT     RA1     000VA                                        00024
002:   6780201908184005    0001Internet Access                         000000000000000011
003:00012020:13:0000000000000000000000000000000100001010005
001:H6687     QEBP00012020190818001201908190100Raman Deep Singh                        Judge                                   Jemma 084, Gr Floor Emerald HiSector 65, South City-II                                    Gurgaon                       HR122018   IN9999998522                                      190818050000H6687I20190813T0000000000000000000000000000000014701220028240675INR20750000000000000RA1     INT     RA1     000VA46240992500380491122                    00025
002:   6885201908182220    0001IRD Dinner Food                         000000077500000010
002:   6886201908187306    0001CGST - 9 %  IRD                         000000006975000020
002:   6887201908187307    0001SGST - 9 % IRD                          000000006975000030
002:   7160201908181001    0001Accommodation Charges                   000000750000000040
002:   7161201908187302    0001CGST - 9 % On Accommodation             000000000000000051
002:   7162201908187303    0001SGST - 9 % On Accommodation             000000000000000061
002:   7163201908187304    0001CGST -14 %On Accommodation              000000105000000070
002:   7164201908187305    0001SGST - 14 % On Accommodation            000000105000000080
002:   8906201908199100    0001462409925003804911/22                   -00001051450000090
003:00012020:13:0000000000000000000000000147012200009010005
001:H6687     QEB 00042920190818001201908190100Patrcik Josef                           Arnold                                  Patrick                                                                                                                            CH                                                HPHSHWSD0000SwitzI20190813T0000000000000000000000000000000000000010028241425INR20850000000000000RB1     B-3     RB1     000VA                                        00026
002:   7045201908184005    0001Internet Access                         000000000000000011
003:00042923:59:0000000000000000000000000000000100001010005
001:H6687     QEB 00042920190818001201908190100Patrcik Josef                           Arnold                                  Patrick                                                                                                                            CH                                                HPHSHWSD0000SwitzI20190813T0000000000000000000000000000000014704820028241425INR20850000000000000RB1     B-3     RB1     000VA41664643054285910622                    00027
002:   7919201908189999    0001Accommodation                           -00000850000000011
002:   7920201908189999    0001Accommodation Charge                    000000850000000020
002:   7921201908181001    0001Slab 1 Room Accomodation                000000810000000031
002:   7922201908187302    0001CGST - 9 % On Accommodation             000000000000000041
002:   7923201908187303    0001SGST - 9 % On Accommodation             000000000000000051
002:   7924201908187304    0001CGST -14 %On Accommodation              000000119000000060
002:   7925201908187305    0001SGST - 14 % On Accommodation            000000119000000070
002:   7926201908182040    0001The Square Breakfast Package            000000040000000081
002:   9163201908199100    0001416646430542859106/22                   -00001088000000090
003:00042923:59:0000000000000000000000000147048200009010005
001:H6687     PM  00903220190814005201908190000Leo Brito                               Clemento                                                                                                                                                                   IN+91 11                                                  0000H6687I20190814N0000000000000000000000000000000014709410028252175INR20000000000000000ZZZ     55R     ZZZ     000MC55236503016881631020                    00028
002:   8900201908149104    0001552365030168816310/20                   -00000767000000011
002:   4650201908149004    0001Deposit Transfer at C/I                 000000767000000021
002:   4651201908149004    0001Deposit Transfer at C/I                 -00000767000000030
002:   4588201908141001    0001Slab 1 Room Accomodation                000000000000000041
002:   4589201908147302    0001CGST - 9 % On Accommodation             000000000000000051
002:   4590201908147303    0001SGST - 9 % On Accommodation             000000000000000061
002:   4591201908147304    0001CGST -14 %On Accommodation              000000000000000071
002:   4592201908147305    0001SGST - 14 % On Accommodation            000000000000000081
002:   8904201908151001    0001Slab 1 Room Accomodation                000000000000000091
002:   8905201908157302    0001CGST - 9 % On Accommodation             000000000000000101
002:   8906201908157303    0001SGST - 9 % On Accommodation             000000000000000111
002:   8907201908157304    0001CGST -14 %On Accommodation              000000000000000121
002:   8908201908157305    0001SGST - 14 % On Accommodation            000000000000000131
002:   9688201908161001    0001Slab 1 Room Accomodation                000000000000000141
002:   9689201908167302    0001CGST - 9 % On Accommodation             000000000000000151
002:   9690201908167303    0001SGST - 9 % On Accommodation             000000000000000161
002:   9691201908167304    0001CGST -14 %On Accommodation              000000000000000171
002:   9692201908167305    0001SGST - 14 % On Accommodation            000000000000000181
002:   5111201908171001    0001Slab 1 Room Accomodation                000000000000000191
002:   5112201908177302    0001CGST - 9 % On Accommodation             000000000000000201
002:   5113201908177303    0001SGST - 9 % On Accommodation             000000000000000211
002:   5114201908177304    0001CGST -14 %On Accommodation              000000000000000221
002:   5115201908177305    0001SGST - 14 % On Accommodation            000000000000000231
002:   8628201908181001    0001Slab 1 Room Accomodation                000000000000000241
002:   8629201908187302    0001CGST - 9 % On Accommodation             000000000000000251
002:   8630201908187303    0001SGST - 9 % On Accommodation             000000000000000261
002:   8631201908187304    0001CGST -14 %On Accommodation              000000000000000271
002:   8632201908187305    0001SGST - 14 % On Accommodation            000000000000000281
002:   0918201908191004    0001Slab 1 No Show Accomodation             000000650000000290
002:   0919201908197349    0001CGST - 9 % Rooms                        000000058500000300
002:   0920201908197350    0001SGST - 9 %  Rooms                       000000058500000310
003:00903223:37:0000000000000000000000000147094100031010005
001:H6687     PM  00903120190814005201908190000Ramon Barreiros                         Moreira                                                                                                                                                                    IN+91 11                                                  0000H6687I20190814N0000000000000000000000000000000014709510028252425INR20000000000000000ZZZ     55R     ZZZ     000MC55236503016881631020                    00029
002:   9150201908149104    0001552365030168816310/20                   -00000767000000011
002:   4900201908149004    0001Deposit Transfer at C/I                 000000767000000021
002:   4901201908149004    0001Deposit Transfer at C/I                 -00000767000000030
002:   4583201908141001    0001Slab 1 Room Accomodation                000000000000000041
002:   4584201908147302    0001CGST - 9 % On Accommodation             000000000000000051
002:   4585201908147303    0001SGST - 9 % On Accommodation             000000000000000061
002:   4586201908147304    0001CGST -14 %On Accommodation              000000000000000071
002:   4587201908147305    0001SGST - 14 % On Accommodation            000000000000000081
002:   8899201908151001    0001Slab 1 Room Accomodation                000000000000000091
002:   8900201908157302    0001CGST - 9 % On Accommodation             000000000000000101
002:   8901201908157303    0001SGST - 9 % On Accommodation             000000000000000111
002:   8902201908157304    0001CGST -14 %On Accommodation              000000000000000121
002:   8903201908157305    0001SGST - 14 % On Accommodation            000000000000000131
002:   9683201908161001    0001Slab 1 Room Accomodation                000000000000000141
002:   9684201908167302    0001CGST - 9 % On Accommodation             000000000000000151
002:   9685201908167303    0001SGST - 9 % On Accommodation             000000000000000161
002:   9686201908167304    0001CGST -14 %On Accommodation              000000000000000171
002:   9687201908167305    0001SGST - 14 % On Accommodation            000000000000000181
002:   5106201908171001    0001Slab 1 Room Accomodation                000000000000000191
002:   5107201908177302    0001CGST - 9 % On Accommodation             000000000000000201
002:   5108201908177303    0001SGST - 9 % On Accommodation             000000000000000211
002:   5109201908177304    0001CGST -14 %On Accommodation              000000000000000221
002:   5110201908177305    0001SGST - 14 % On Accommodation            000000000000000231
002:   8623201908181001    0001Slab 1 Room Accomodation                000000000000000241
002:   8624201908187302    0001CGST - 9 % On Accommodation             000000000000000251
002:   8625201908187303    0001SGST - 9 % On Accommodation             000000000000000261
002:   8626201908187304    0001CGST -14 %On Accommodation              000000000000000271
002:   8627201908187305    0001SGST - 14 % On Accommodation            000000000000000281
002:   0922201908191004    0001Slab 1 No Show Accomodation             000000650000000290
002:   0923201908197349    0001CGST - 9 % Rooms                        000000058500000300
002:   0924201908197350    0001SGST - 9 %  Rooms                       000000058500000310
003:00903123:37:0000000000000000000000000147095100031010005
001:H6687     QEB 00045920190815004201908190100SANJEEB KUMAR                           BORBORA                                                                                                                                                                    IN8547878962                                              0000H6687I20190814S0000000000000000000000000000000000000010028253448INR20423729000000000CRW02           CRW02   INDCL                                        00030
002:   2650201908164005    0001Internet Access                         000000000000000011
003:00045919:32:0000000000000000000000000000000100001010005
001:H6687     QEB 00045920190815004201908190100SANJEEB KUMAR                           BORBORA                                                                                                                                                                    IN8547878962                                              0000H6687I20190814S0000000000000000000000000000000014710120028253448INR20423729000000000CRW02           CRW02   INDCLInterGlobe Aviation Limited("IndiGo")   00031
002:   8311201908159999    0001Accommodation                           -00000423729000011
002:   8312201908159999    0001Accommodation Charge                    000000423729000020
002:   8313201908151001    0001Slab 1 Room Accomodation                000000273729000031
002:   8314201908157302    0001CGST - 9 % On Accommodation             000000038136000040
002:   8315201908157303    0001SGST - 9 % On Accommodation             000000038136000050
002:   8316201908157304    0001CGST -14 %On Accommodation              000000000000000061
002:   8317201908157305    0001SGST - 14 % On Accommodation            000000000000000071
002:   8318201908152040    0001The Square Breakfast Package            000000040000000081
002:   8319201908152041    0001The Square Lunch Package                000000050000000091
002:   8320201908152042    0001The Square Dinner Package               000000060000000101
002:   9297201908169999    0001Accommodation                           -00000423729000111
002:   9298201908169999    0001Accommodation Charge                    000000423729000120
002:   9299201908161001    0001Slab 1 Room Accomodation                000000273729000131
002:   9300201908167302    0001CGST - 9 % On Accommodation             000000038136000140
002:   9301201908167303    0001SGST - 9 % On Accommodation             000000038136000150
002:   9302201908167304    0001CGST -14 %On Accommodation              000000000000000161
002:   9303201908167305    0001SGST - 14 % On Accommodation            000000000000000171
002:   9304201908162040    0001The Square Breakfast Package            000000040000000181
002:   9305201908162041    0001The Square Lunch Package                000000050000000191
002:   9306201908162042    0001The Square Dinner Package               000000060000000201
002:   4524201908179999    0001Accommodation                           -00000423729000211
002:   4525201908179999    0001Accommodation Charge                    000000423729000220
002:   4526201908171001    0001Slab 1 Room Accomodation                000000273729000231
002:   4527201908177302    0001CGST - 9 % On Accommodation             000000038136000240
002:   4528201908177303    0001SGST - 9 % On Accommodation             000000038136000250
002:   4529201908177304    0001CGST -14 %On Accommodation              000000000000000261
002:   4530201908177305    0001SGST - 14 % On Accommodation            000000000000000271
002:   4531201908172040    0001The Square Breakfast Package            000000040000000281
002:   4532201908172041    0001The Square Lunch Package                000000050000000291
002:   4533201908172042    0001The Square Dinner Package               000000060000000301
002:   8068201908189999    0001Accommodation                           -00000423729000311
002:   8069201908189999    0001Accommodation Charge                    000000423729000320
002:   8070201908181001    0001Slab 1 Room Accomodation                000000273729000331
002:   8071201908187302    0001CGST - 9 % On Accommodation             000000038136000340
002:   8072201908187303    0001SGST - 9 % On Accommodation             000000038136000350
002:   8073201908187304    0001CGST -14 %On Accommodation              000000000000000361
002:   8074201908187305    0001SGST - 14 % On Accommodation            000000000000000371
002:   8075201908182040    0001The Square Breakfast Package            000000040000000381
002:   8076201908182041    0001The Square Lunch Package                000000050000000391
002:   8077201908182042    0001The Square Dinner Package               000000060000000401
002:   1268201908199003    0001InterGlobe Aviation Limited("IndiGo")Cit-00002000004000410
003:00045919:32:0000000000000000000000000147101200041010005
001:H6687     QEB 00045920190815004201908190100SANJEEB KUMAR                           BORBORA                                                                                                                                                                    IN8547878962                                              0000H6687I20190814S0000000000000000000000000000000014710230028253448INR20423729000000000CRW02           CRW02   INDCL                                        00032
002:   5150201908162200    0001IRD Lunch Food                          000000125000000010
002:   5151201908167306    0001CGST - 9 %  IRD                         000000011250000020
002:   5152201908167307    0001SGST - 9 % IRD                          000000011250000030
002:   7419201908166210    0001Adj  IRD Food                           -00000125000000040
002:   7420201908166506    0001CGST - 9 % Allow IRD                    -00000011250000050
002:   7421201908166507    0001SGST - 9 % Allow  IRD                   -00000011250000060
003:00045919:32:0000000000000000000000000147102300006010005
001:H6687     QEB 00044120190817002201908190100Jayaleela                               V                                       H No 6-3-1219,                Umanagar                      Begumpet                      Hyderabad                       500016   IN8008333216                                      190817050000H6687I20190814T0000000000000000000000000000000000000010028259175INR20725000000000000RA1     MAH     RA1     000VA                                        00033
002:   2931201908174005    0001Internet Access                         000000000000000011
003:00044118:09:0000000000000000000000000000000100001010005
001:H6687     QEB 00044120190817002201908190100Jayaleela                               V                                       H No 6-3-1219,                Umanagar                      Begumpet                      Hyderabad                       500016   IN8008333216                                      190817050000H6687I20190814T0000000000000000000000000000000014708920028259175INR20725000000000000RA1     MAH     RA1     000VA42132624093720760224                    00034
002:   4478201908171001    0001Accommodation Charges                   000000725000000010
002:   4479201908177302    0001CGST - 9 % On Accommodation             000000065250000020
002:   4480201908177303    0001SGST - 9 % On Accommodation             000000065250000030
002:   4481201908177304    0001CGST -14 %On Accommodation              000000000000000041
002:   4482201908177305    0001SGST - 14 % On Accommodation            000000000000000051
002:   7975201908181001    0001Accommodation Charges                   000000725000000060
002:   7976201908187302    0001CGST - 9 % On Accommodation             000000065250000070
002:   7977201908187303    0001SGST - 9 % On Accommodation             000000065250000080
002:   7978201908187304    0001CGST -14 %On Accommodation              000000000000000091
002:   7979201908187305    0001SGST - 14 % On Accommodation            000000000000000101
002:   0182201908179100    0001421326240937207602/24                   -00001711000000110
003:00044118:09:0000000000000000000000000147089200011010005
001:H6687     QEB 00044120190817002201908190100Jayaleela                               V                                       H No 6-3-1219,                Umanagar                      Begumpet                      Hyderabad                       500016   IN8008333216                                      190817050000H6687I20190814T0000000000000000000000000000000014708830028259175INR20725000000000000RA1     MAH     RA1     000VA42132624093720760224                    00035
002:   0183201908179100    0001421326240937207602/24                   -00000389000000010
002:   0186201908199003    0001FRONT OFFICE ACCOUNTCity Ledger         000000389000000020
003:00044118:09:0000000000000000000000000147088300002010005
001:H6687     QEB 00033520190819000201908190100Eric                                    Jonsson                                 Belgium                                                                                                                            BE+91 9866687465                                  HPJSDZGZ0000BelgiI20190814T0000000000000000000000000000000014707110028260925INR20850000000000000RB1     BusinessRB1     000VA44547354152130511120                    00036
002:   8903201908194005    0001Internet Access                         000000000000000011
002:   9693201908199999    0001Accommodation                           -00000850000000021
002:   9694201908199999    0001Accommodation Charge                    000000850000000030
002:   9695201908191001    0001Slab 1 Room Accomodation                000000810000000041
002:   9696201908197302    0001CGST - 9 % On Accommodation             000000000000000051
002:   9697201908197303    0001SGST - 9 % On Accommodation             000000000000000061
002:   9698201908197304    0001CGST -14 %On Accommodation              000000119000000070
002:   9699201908197305    0001SGST - 14 % On Accommodation            000000119000000080
002:   9700201908192040    0001The Square Breakfast Package            000000040000000091
002:   9902201908199100    0001445473541521305111/20                   -00001088000000100
003:00033504:37:0000000000000000000000000147071100010010005
001:H6687     QEB 00030920190814005201908190200Harshwardhan                            Dengwekar                                                                                                                                                                  IN+91 11                                          HPJSFCXB0000H6687I20190814T0000000000000000000000000000000000000010028261425INR20000000000000000HOUSE   55R     HOUSE   000CA                                        00037
002:   7650201908144005    0001Internet Access                         000000000000000011
003:00030922:25:0000000000000000000000000000000100001010005
001:H6687     QEB 00030920190814005201908190200Harshwardhan                            Dengwekar                                                                                                                                                                  IN+91 11                                          HPJSFCXB0000H6687I20190814T0000000000000000000000000000000014706020028261425INR20000000000000000HOUSE   55R     HOUSE   000CLFRONT OFFICE ACCOUNT                    00038
002:   3395201908141015    0001House Use/ Bievenue                     000000000000000011
002:   3396201908147302    0001CGST - 9 % On Accommodation             000000058500000020
002:   3397201908147303    0001SGST - 9 % On Accommodation             000000058500000030
002:   7832201908151015    0001House Use/ Bievenue                     000000000000000041
002:   7833201908157302    0001CGST - 9 % On Accommodation             000000058500000050
002:   7834201908157303    0001SGST - 9 % On Accommodation             000000058500000060
002:   8798201908161015    0001House Use/ Bievenue                     000000000000000071
002:   8799201908167302    0001CGST - 9 % On Accommodation             000000058500000080
002:   8800201908167303    0001SGST - 9 % On Accommodation             000000058500000090
002:   3741201908171015    0001House Use/ Bievenue                     000000000000000101
002:   3742201908177302    0001CGST - 9 % On Accommodation             000000058500000110
002:   3743201908177303    0001SGST - 9 % On Accommodation             000000058500000120
002:   7316201908181015    0001House Use/ Bievenue                     000000000000000131
002:   7317201908187302    0001CGST - 9 % On Accommodation             000000058500000140
002:   7318201908187303    0001SGST - 9 % On Accommodation             000000058500000150
002:   9704201908199003    0001FRONT OFFICE ACCOUNTCity Ledger         -00000585000000160
002:   5926201908199003    0001FRONT OFFICE ACCOUNTCity Ledger         000000585000000170
002:   5927201908199003    0001ZZ CREDIT DEPTCity Ledger               -00000585000000180
003:00030922:25:0000000000000000000000000147060200018010005
001:H6687     TWB 00041120190814005201908190000Hisham                                  Samdani                                 5536                          Quarter Horse LN              Moseley                       Moseley                       VA23120    US8045393915                                              0000H6687220190814T0PC0290900000000000000000000000000000010028262425INR20000000000000000FLRA1   BKG     FLRA1   000CA                                        00039
002:   3756201908141001    0001Slab 1 Room Accomodation                000000000000000011
002:   3757201908147302    0001CGST - 9 % On Accommodation             000000000000000021
002:   3758201908147303    0001SGST - 9 % On Accommodation             000000000000000031
002:   3759201908147304    0001CGST -14 %On Accommodation              000000000000000041
002:   3760201908147305    0001SGST - 14 % On Accommodation            000000000000000051
002:   8137201908151001    0001Slab 1 Room Accomodation                000000000000000061
002:   8138201908157302    0001CGST - 9 % On Accommodation             000000000000000071
002:   8139201908157303    0001SGST - 9 % On Accommodation             000000000000000081
002:   8140201908157304    0001CGST -14 %On Accommodation              000000000000000091
002:   8141201908157305    0001SGST - 14 % On Accommodation            000000000000000101
002:   9116201908161001    0001Slab 1 Room Accomodation                000000000000000111
002:   9117201908167302    0001CGST - 9 % On Accommodation             000000000000000121
002:   9118201908167303    0001SGST - 9 % On Accommodation             000000000000000131
002:   9119201908167304    0001CGST -14 %On Accommodation              000000000000000141
002:   9120201908167305    0001SGST - 14 % On Accommodation            000000000000000151
002:   4363201908171001    0001Slab 1 Room Accomodation                000000000000000161
002:   4364201908177302    0001CGST - 9 % On Accommodation             000000000000000171
002:   4365201908177303    0001SGST - 9 % On Accommodation             000000000000000181
002:   4366201908177304    0001CGST -14 %On Accommodation              000000000000000191
002:   4367201908177305    0001SGST - 14 % On Accommodation            000000000000000201
002:   7784201908181001    0001Slab 1 Room Accomodation                000000000000000211
002:   7785201908187302    0001CGST - 9 % On Accommodation             000000000000000221
002:   7786201908187303    0001SGST - 9 % On Accommodation             000000000000000231
002:   7787201908187304    0001CGST -14 %On Accommodation              000000000000000241
002:   7788201908187305    0001SGST - 14 % On Accommodation            000000000000000251
003:00041112:30:0000000000000000000000000000000100025010005
001:H6687     TWB 00041120190814005201908190000Nooriya                                 Samdani                                 10315                         Georgetown Pike                                             Great Falls                   VA22066    US8045393915                                              0000H6687220190814T0PC0290900000000000000000000000000000010028262675INR20000000000000000FLRA1   BKG     FLRA1   000CA                                        00040
002:   3751201908141001    0001Slab 1 Room Accomodation                000000000000000011
002:   3752201908147302    0001CGST - 9 % On Accommodation             000000000000000021
002:   3753201908147303    0001SGST - 9 % On Accommodation             000000000000000031
002:   3754201908147304    0001CGST -14 %On Accommodation              000000000000000041
002:   3755201908147305    0001SGST - 14 % On Accommodation            000000000000000051
002:   8147201908151001    0001Slab 1 Room Accomodation                000000000000000061
002:   8148201908157302    0001CGST - 9 % On Accommodation             000000000000000071
002:   8149201908157303    0001SGST - 9 % On Accommodation             000000000000000081
002:   8150201908157304    0001CGST -14 %On Accommodation              000000000000000091
002:   8151201908157305    0001SGST - 14 % On Accommodation            000000000000000101
002:   9111201908161001    0001Slab 1 Room Accomodation                000000000000000111
002:   9112201908167302    0001CGST - 9 % On Accommodation             000000000000000121
002:   9113201908167303    0001SGST - 9 % On Accommodation             000000000000000131
002:   9114201908167304    0001CGST -14 %On Accommodation              000000000000000141
002:   9115201908167305    0001SGST - 14 % On Accommodation            000000000000000151
002:   4358201908171001    0001Slab 1 Room Accomodation                000000000000000161
002:   4359201908177302    0001CGST - 9 % On Accommodation             000000000000000171
002:   4360201908177303    0001SGST - 9 % On Accommodation             000000000000000181
002:   4361201908177304    0001CGST -14 %On Accommodation              000000000000000191
002:   4362201908177305    0001SGST - 14 % On Accommodation            000000000000000201
002:   7789201908181001    0001Slab 1 Room Accomodation                000000000000000211
002:   7790201908187302    0001CGST - 9 % On Accommodation             000000000000000221
002:   7791201908187303    0001SGST - 9 % On Accommodation             000000000000000231
002:   7792201908187304    0001CGST -14 %On Accommodation              000000000000000241
002:   7793201908187305    0001SGST - 14 % On Accommodation            000000000000000251
003:00041112:32:0000000000000000000000000000000100025010005
001:H6687     TWB 00041520190814005201908190000Salma                                   Samdani                                 10315                         Georgetown Pike               Great Falls                   Great Falls                   VA22066    US8045393915                                              0000H6687220190814T0PC0290900000000000000000000000000000010028263675INR20000000000000000FLRA1   BKG     FLRA1   000CA                                        00041
002:   3766201908141001    0001Slab 1 Room Accomodation                000000000000000011
002:   3767201908147302    0001CGST - 9 % On Accommodation             000000000000000021
002:   3768201908147303    0001SGST - 9 % On Accommodation             000000000000000031
002:   3769201908147304    0001CGST -14 %On Accommodation              000000000000000041
002:   3770201908147305    0001SGST - 14 % On Accommodation            000000000000000051
002:   8152201908151001    0001Slab 1 Room Accomodation                000000000000000061
002:   8153201908157302    0001CGST - 9 % On Accommodation             000000000000000071
002:   8154201908157303    0001SGST - 9 % On Accommodation             000000000000000081
002:   8155201908157304    0001CGST -14 %On Accommodation              000000000000000091
002:   8156201908157305    0001SGST - 14 % On Accommodation            000000000000000101
002:   9126201908161001    0001Slab 1 Room Accomodation                000000000000000111
002:   9127201908167302    0001CGST - 9 % On Accommodation             000000000000000121
002:   9128201908167303    0001SGST - 9 % On Accommodation             000000000000000131
002:   9129201908167304    0001CGST -14 %On Accommodation              000000000000000141
002:   9130201908167305    0001SGST - 14 % On Accommodation            000000000000000151
002:   4388201908171001    0001Slab 1 Room Accomodation                000000000000000161
002:   4389201908177302    0001CGST - 9 % On Accommodation             000000000000000171
002:   4390201908177303    0001SGST - 9 % On Accommodation             000000000000000181
002:   4391201908177304    0001CGST -14 %On Accommodation              000000000000000191
002:   4392201908177305    0001SGST - 14 % On Accommodation            000000000000000201
002:   7799201908181001    0001Slab 1 Room Accomodation                000000000000000211
002:   7800201908187302    0001CGST - 9 % On Accommodation             000000000000000221
002:   7801201908187303    0001SGST - 9 % On Accommodation             000000000000000231
002:   7802201908187304    0001CGST -14 %On Accommodation              000000000000000241
002:   7803201908187305    0001SGST - 14 % On Accommodation            000000000000000251
003:00041513:06:0000000000000000000000000000000100025010005
001:H6687     QEBP00045420190817002201908190100Kdp                                     Rao                                     Dubai                                                                                     Ae                              19950    IN9425207525                                      190817050000H6687I20190814T0000000000000000000000000000000014708320028271175INR20725000000000000RA1     INT     RA1     000CA                                        00042
002:   3359201908172240    0001IRD Midnight Food                       000000132500000010
002:   3360201908177306    0001CGST - 9 %  IRD                         000000011925000020
002:   3361201908177307    0001SGST - 9 % IRD                          000000011925000030
002:   4499201908171001    0001Accommodation Charges                   000000725000000040
002:   4500201908177302    0001CGST - 9 % On Accommodation             000000065250000050
002:   4501201908177303    0001SGST - 9 % On Accommodation             000000065250000060
002:   4502201908177304    0001CGST -14 %On Accommodation              000000000000000071
002:   4503201908177305    0001SGST - 14 % On Accommodation            000000000000000081
002:   5804201908182200    0001IRD Lunch Food                          000000140000000090
002:   5805201908187306    0001CGST - 9 %  IRD                         000000012600000100
002:   5806201908187307    0001SGST - 9 % IRD                          000000012600000110
002:   6409201908182200    0001IRD Lunch Food                          000000065000000120
002:   6410201908187306    0001CGST - 9 %  IRD                         000000005850000130
002:   6411201908187307    0001SGST - 9 % IRD                          000000005850000140
002:   6789201908182221    0001IRD Dinner Soft Beverage                000000030000000150
002:   6790201908182226    0001IRD Dinner Liquor                       000000200000000160
002:   6791201908187306    0001CGST - 9 %  IRD                         000000002700000170
002:   6792201908187307    0001SGST - 9 % IRD                          000000002700000180
002:   6920201908182226    0001IRD Dinner Liquor                       000000200000000190
002:   6942201908182220    0001IRD Dinner Food                         000000165000000200
002:   6943201908187306    0001CGST - 9 %  IRD                         000000014850000210
002:   6944201908187307    0001SGST - 9 % IRD                          000000014850000220
002:   8003201908181001    0001Accommodation Charges                   000000725000000230
002:   8004201908187302    0001CGST - 9 % On Accommodation             000000065250000240
002:   8005201908187303    0001SGST - 9 % On Accommodation             000000065250000250
002:   8006201908187304    0001CGST -14 %On Accommodation              000000000000000261
002:   8007201908187305    0001SGST - 14 % On Accommodation            000000000000000271
002:   9701201908192200    0001IRD Lunch Food                          000000100000000280
002:   9702201908197306    0001CGST - 9 %  IRD                         000000009000000290
002:   9703201908197307    0001SGST - 9 % IRD                          000000009000000300
002:   0172201908199000    0001Cash                                    -00002857350000310
003:00045421:56:0000000000000000000000000147083200031010005
001:H6687     QEBP00045420190817002201908190100Kdp                                     Rao                                     Dubai                                                                                     Ae                              19950    IN9425207525                                      190817050000H6687I20190814T0000000000000000000000000000000014708230028271175INR20725000000000000RA1     INT     RA1     000CA                                        00043
002:   6729201908183600    0001SPA Membership                          000000350700000010
002:   6730201908187337    0001CGST - 9 % SPA                          000000031563000020
002:   6731201908187338    0001SGST - 9 % SPA                          000000031563000030
002:   0177201908199000    0001Cash                                    -00000413826000040
003:00045421:56:0000000000000000000000000147082300004010005
001:H6687     QEB 00057620190818001201908190100Praveen                                 Nallamothu                              5-9                           Nadendla                      Guntur                        Krishna                       AP522234   IN+91 8333857035                                  HPJSJHFH0000H6687I20190814C0000000000000000000000000000000000000010028276425INR20650000SC9150756C05     55R     C05     000CL                                        00044
002:   6837201908184005    0001Internet Access                         000000000000000011
003:00057620:59:0000000000000000000000000000000100001010005
001:H6687     QEB 00057620190818001201908190100Praveen                                 Nallamothu                              5-9                           Nadendla                      Guntur                        Krishna                       AP522234   IN+91 8333857035                                  HPJSJHFH0000H6687I20190814C0000000000000000000000000000000014701020028276425INR20650000SC9150756C05     55R     C05     000CLDR REDDYS LABORATORIES LTD              00045
002:   6804201908182220    0001IRD Dinner Food                         000000020000000010
002:   6805201908187306    0001CGST - 9 %  IRD                         000000001800000020
002:   6806201908187307    0001SGST - 9 % IRD                          000000001800000030
002:   8454201908189999    0001Accommodation                           -00000650000000041
002:   8455201908189999    0001Accommodation Charge                    000000650000000050
002:   8456201908181001    0001Slab 1 Room Accomodation                000000610000000061
002:   8457201908187302    0001CGST - 9 % On Accommodation             000000058500000070
002:   8458201908187303    0001SGST - 9 % On Accommodation             000000058500000080
002:   8459201908187304    0001CGST -14 %On Accommodation              000000000000000091
002:   8460201908187305    0001SGST - 14 % On Accommodation            000000000000000101
002:   8461201908182040    0001The Square Breakfast Package            000000040000000111
002:   8905201908199003    0001DR REDDYS LABORATORIES LTDCity Ledger   -00000790600000120
003:00057620:59:0000000000000000000000000147010200012010005
001:H6687     TWB 00011120190818001201908190200Devendar                                Vemula                                  Sri Sai Krupa                 Apt B Block                   Flat 138/A Kompally                                                    IN                                                HPJSJLQX0000H6687420190814T0966270900000000000000000000000000000010028276925INR20713625000000000FLRA1   AGO     FLRA1   000MC                                        00046
002:   7010201908184005    0001Internet Access                         000000000000000011
003:00011123:59:0000000000000000000000000000000100001010005
001:H6687     TWB 00011120190818001201908190200Devendar                                Vemula                                  Sri Sai Krupa                 Apt B Block                   Flat 138/A Kompally                                                    IN                                                HPJSJLQX0000H6687420190814T0966270900000000000000000000000014705320028276925INR20713625000000000FLRA1   AGO     FLRA1   000MC55339757795637640120                    00047
002:   7100201908181001    0001Accommodation Charges                   000000713625000010
002:   7101201908187302    0001CGST - 9 % On Accommodation             000000064226000020
002:   7102201908187303    0001SGST - 9 % On Accommodation             000000064226000030
002:   7103201908187304    0001CGST -14 %On Accommodation              000000000000000041
002:   7104201908187305    0001SGST - 14 % On Accommodation            000000000000000051
002:   9165201908199104    0001553397577956376401/20                   -00000944625000060
002:   9176201908191000    0001Slab 1 Accomodation                     000000086910000070
002:   9177201908197302    0001CGST - 9 % On Accommodation             000000007822000080
002:   9178201908197303    0001SGST - 9 % On Accommodation             000000007822000090
002:   9179201908197304    0001CGST -14 %On Accommodation              000000000000000101
002:   9180201908197305    0001SGST - 14 % On Accommodation            000000000000000111
002:   9181201908191018    0001Round Off                               -00000000006000120
003:00011123:59:0000000000000000000000000147053200012010005
001:H6687     PM  00900720190815004201908190000Kathleen                                Smith                                                                                                                                                                      IN                                                        0000H6687320190815N0PC0290900000000000000000000000014709310028285425INR20000000000000000ZZZ     BKG     ZZZ     000VA                                        00048
002:   2901201908149901I   0001Internal Deposit Transfer Code          -00001563500000011
002:   9654201908159004    0001Deposit Transfer at C/I                 000001563500000021
002:   9655201908159004    0001Deposit Transfer at C/I                 -00001563500000030
002:   8874201908151001    0001Slab 1 Room Accomodation                000000000000000041
002:   8875201908157302    0001CGST - 9 % On Accommodation             000000000000000051
002:   8876201908157303    0001SGST - 9 % On Accommodation             000000000000000061
